{
  "contractName": "NFT",
  "abi": [
    {
      "inputs": [
        {
          "internalType": "string",
          "name": "_name",
          "type": "string"
        },
        {
          "internalType": "string",
          "name": "_symbol",
          "type": "string"
        },
        {
          "internalType": "string",
          "name": "_initBaseURI",
          "type": "string"
        },
        {
          "internalType": "string",
          "name": "_initNotRevealedUri",
          "type": "string"
        }
      ],
      "stateMutability": "nonpayable",
      "type": "constructor"
    },
    {
      "inputs": [],
      "name": "SalesCompleted",
      "type": "error"
    },
    {
      "anonymous": false,
      "inputs": [
        {
          "indexed": true,
          "internalType": "address",
          "name": "owner",
          "type": "address"
        },
        {
          "indexed": true,
          "internalType": "address",
          "name": "approved",
          "type": "address"
        },
        {
          "indexed": true,
          "internalType": "uint256",
          "name": "tokenId",
          "type": "uint256"
        }
      ],
      "name": "Approval",
      "type": "event"
    },
    {
      "anonymous": false,
      "inputs": [
        {
          "indexed": true,
          "internalType": "address",
          "name": "owner",
          "type": "address"
        },
        {
          "indexed": true,
          "internalType": "address",
          "name": "operator",
          "type": "address"
        },
        {
          "indexed": false,
          "internalType": "bool",
          "name": "approved",
          "type": "bool"
        }
      ],
      "name": "ApprovalForAll",
      "type": "event"
    },
    {
      "anonymous": false,
      "inputs": [
        {
          "indexed": true,
          "internalType": "address",
          "name": "previousOwner",
          "type": "address"
        },
        {
          "indexed": true,
          "internalType": "address",
          "name": "newOwner",
          "type": "address"
        }
      ],
      "name": "OwnershipTransferred",
      "type": "event"
    },
    {
      "anonymous": false,
      "inputs": [
        {
          "indexed": true,
          "internalType": "address",
          "name": "from",
          "type": "address"
        },
        {
          "indexed": true,
          "internalType": "address",
          "name": "to",
          "type": "address"
        },
        {
          "indexed": true,
          "internalType": "uint256",
          "name": "tokenId",
          "type": "uint256"
        }
      ],
      "name": "Transfer",
      "type": "event"
    },
    {
      "inputs": [
        {
          "internalType": "address",
          "name": "",
          "type": "address"
        }
      ],
      "name": "addressMintedBalance",
      "outputs": [
        {
          "internalType": "uint256",
          "name": "",
          "type": "uint256"
        }
      ],
      "stateMutability": "view",
      "type": "function"
    },
    {
      "inputs": [
        {
          "internalType": "address",
          "name": "to",
          "type": "address"
        },
        {
          "internalType": "uint256",
          "name": "tokenId",
          "type": "uint256"
        }
      ],
      "name": "approve",
      "outputs": [],
      "stateMutability": "nonpayable",
      "type": "function"
    },
    {
      "inputs": [
        {
          "internalType": "address",
          "name": "owner",
          "type": "address"
        }
      ],
      "name": "balanceOf",
      "outputs": [
        {
          "internalType": "uint256",
          "name": "",
          "type": "uint256"
        }
      ],
      "stateMutability": "view",
      "type": "function"
    },
    {
      "inputs": [],
      "name": "baseExtension",
      "outputs": [
        {
          "internalType": "string",
          "name": "",
          "type": "string"
        }
      ],
      "stateMutability": "view",
      "type": "function"
    },
    {
      "inputs": [],
      "name": "baseURI",
      "outputs": [
        {
          "internalType": "string",
          "name": "",
          "type": "string"
        }
      ],
      "stateMutability": "view",
      "type": "function"
    },
    {
      "inputs": [],
      "name": "cost",
      "outputs": [
        {
          "internalType": "uint256",
          "name": "",
          "type": "uint256"
        }
      ],
      "stateMutability": "view",
      "type": "function"
    },
    {
      "inputs": [],
      "name": "discountCost",
      "outputs": [
        {
          "internalType": "uint256",
          "name": "",
          "type": "uint256"
        }
      ],
      "stateMutability": "view",
      "type": "function"
    },
    {
      "inputs": [
        {
          "internalType": "uint256",
          "name": "tokenId",
          "type": "uint256"
        }
      ],
      "name": "getApproved",
      "outputs": [
        {
          "internalType": "address",
          "name": "",
          "type": "address"
        }
      ],
      "stateMutability": "view",
      "type": "function"
    },
    {
      "inputs": [
        {
          "internalType": "address",
          "name": "owner",
          "type": "address"
        },
        {
          "internalType": "address",
          "name": "operator",
          "type": "address"
        }
      ],
      "name": "isApprovedForAll",
      "outputs": [
        {
          "internalType": "bool",
          "name": "",
          "type": "bool"
        }
      ],
      "stateMutability": "view",
      "type": "function"
    },
    {
      "inputs": [],
      "name": "maxMintAmount",
      "outputs": [
        {
          "internalType": "uint256",
          "name": "",
          "type": "uint256"
        }
      ],
      "stateMutability": "view",
      "type": "function"
    },
    {
      "inputs": [],
      "name": "maxSupply",
      "outputs": [
        {
          "internalType": "uint256",
          "name": "",
          "type": "uint256"
        }
      ],
      "stateMutability": "view",
      "type": "function"
    },
    {
      "inputs": [],
      "name": "name",
      "outputs": [
        {
          "internalType": "string",
          "name": "",
          "type": "string"
        }
      ],
      "stateMutability": "view",
      "type": "function"
    },
    {
      "inputs": [],
      "name": "nftPerAddressLimit",
      "outputs": [
        {
          "internalType": "uint256",
          "name": "",
          "type": "uint256"
        }
      ],
      "stateMutability": "view",
      "type": "function"
    },
    {
      "inputs": [],
      "name": "notRevealedUri",
      "outputs": [
        {
          "internalType": "string",
          "name": "",
          "type": "string"
        }
      ],
      "stateMutability": "view",
      "type": "function"
    },
    {
      "inputs": [],
      "name": "onlyWhitelisted",
      "outputs": [
        {
          "internalType": "bool",
          "name": "",
          "type": "bool"
        }
      ],
      "stateMutability": "view",
      "type": "function"
    },
    {
      "inputs": [],
      "name": "owner",
      "outputs": [
        {
          "internalType": "address",
          "name": "",
          "type": "address"
        }
      ],
      "stateMutability": "view",
      "type": "function"
    },
    {
      "inputs": [
        {
          "internalType": "uint256",
          "name": "tokenId",
          "type": "uint256"
        }
      ],
      "name": "ownerOf",
      "outputs": [
        {
          "internalType": "address",
          "name": "",
          "type": "address"
        }
      ],
      "stateMutability": "view",
      "type": "function"
    },
    {
      "inputs": [],
      "name": "paused",
      "outputs": [
        {
          "internalType": "bool",
          "name": "",
          "type": "bool"
        }
      ],
      "stateMutability": "view",
      "type": "function"
    },
    {
      "inputs": [],
      "name": "renounceOwnership",
      "outputs": [],
      "stateMutability": "nonpayable",
      "type": "function"
    },
    {
      "inputs": [
        {
          "internalType": "address",
          "name": "from",
          "type": "address"
        },
        {
          "internalType": "address",
          "name": "to",
          "type": "address"
        },
        {
          "internalType": "uint256",
          "name": "tokenId",
          "type": "uint256"
        }
      ],
      "name": "safeTransferFrom",
      "outputs": [],
      "stateMutability": "nonpayable",
      "type": "function"
    },
    {
      "inputs": [
        {
          "internalType": "address",
          "name": "from",
          "type": "address"
        },
        {
          "internalType": "address",
          "name": "to",
          "type": "address"
        },
        {
          "internalType": "uint256",
          "name": "tokenId",
          "type": "uint256"
        },
        {
          "internalType": "bytes",
          "name": "_data",
          "type": "bytes"
        }
      ],
      "name": "safeTransferFrom",
      "outputs": [],
      "stateMutability": "nonpayable",
      "type": "function"
    },
    {
      "inputs": [],
      "name": "saleEnd",
      "outputs": [
        {
          "internalType": "uint256",
          "name": "",
          "type": "uint256"
        }
      ],
      "stateMutability": "view",
      "type": "function"
    },
    {
      "inputs": [],
      "name": "saleStart",
      "outputs": [
        {
          "internalType": "uint256",
          "name": "",
          "type": "uint256"
        }
      ],
      "stateMutability": "view",
      "type": "function"
    },
    {
      "inputs": [
        {
          "internalType": "address",
          "name": "operator",
          "type": "address"
        },
        {
          "internalType": "bool",
          "name": "approved",
          "type": "bool"
        }
      ],
      "name": "setApprovalForAll",
      "outputs": [],
      "stateMutability": "nonpayable",
      "type": "function"
    },
    {
      "inputs": [
        {
          "internalType": "bytes4",
          "name": "interfaceId",
          "type": "bytes4"
        }
      ],
      "name": "supportsInterface",
      "outputs": [
        {
          "internalType": "bool",
          "name": "",
          "type": "bool"
        }
      ],
      "stateMutability": "view",
      "type": "function"
    },
    {
      "inputs": [],
      "name": "symbol",
      "outputs": [
        {
          "internalType": "string",
          "name": "",
          "type": "string"
        }
      ],
      "stateMutability": "view",
      "type": "function"
    },
    {
      "inputs": [
        {
          "internalType": "uint256",
          "name": "index",
          "type": "uint256"
        }
      ],
      "name": "tokenByIndex",
      "outputs": [
        {
          "internalType": "uint256",
          "name": "",
          "type": "uint256"
        }
      ],
      "stateMutability": "view",
      "type": "function"
    },
    {
      "inputs": [
        {
          "internalType": "address",
          "name": "owner",
          "type": "address"
        },
        {
          "internalType": "uint256",
          "name": "index",
          "type": "uint256"
        }
      ],
      "name": "tokenOfOwnerByIndex",
      "outputs": [
        {
          "internalType": "uint256",
          "name": "",
          "type": "uint256"
        }
      ],
      "stateMutability": "view",
      "type": "function"
    },
    {
      "inputs": [],
      "name": "totalSupply",
      "outputs": [
        {
          "internalType": "uint256",
          "name": "",
          "type": "uint256"
        }
      ],
      "stateMutability": "view",
      "type": "function"
    },
    {
      "inputs": [
        {
          "internalType": "address",
          "name": "from",
          "type": "address"
        },
        {
          "internalType": "address",
          "name": "to",
          "type": "address"
        },
        {
          "internalType": "uint256",
          "name": "tokenId",
          "type": "uint256"
        }
      ],
      "name": "transferFrom",
      "outputs": [],
      "stateMutability": "nonpayable",
      "type": "function"
    },
    {
      "inputs": [
        {
          "internalType": "address",
          "name": "newOwner",
          "type": "address"
        }
      ],
      "name": "transferOwnership",
      "outputs": [],
      "stateMutability": "nonpayable",
      "type": "function"
    },
    {
      "inputs": [
        {
          "internalType": "uint256",
          "name": "",
          "type": "uint256"
        }
      ],
      "name": "whitelistedAddresses",
      "outputs": [
        {
          "internalType": "address",
          "name": "",
          "type": "address"
        }
      ],
      "stateMutability": "view",
      "type": "function"
    },
    {
      "inputs": [
        {
          "internalType": "uint256",
          "name": "_mintAmount",
          "type": "uint256"
        }
      ],
      "name": "mint",
      "outputs": [],
      "stateMutability": "payable",
      "type": "function"
    },
    {
      "inputs": [
        {
          "internalType": "address",
          "name": "_user",
          "type": "address"
        }
      ],
      "name": "isWhitelisted",
      "outputs": [
        {
          "internalType": "bool",
          "name": "",
          "type": "bool"
        }
      ],
      "stateMutability": "view",
      "type": "function"
    },
    {
      "inputs": [
        {
          "internalType": "address",
          "name": "_owner",
          "type": "address"
        }
      ],
      "name": "walletOfOwner",
      "outputs": [
        {
          "internalType": "uint256[]",
          "name": "",
          "type": "uint256[]"
        }
      ],
      "stateMutability": "view",
      "type": "function"
    },
    {
      "inputs": [
        {
          "internalType": "uint256",
          "name": "tokenId",
          "type": "uint256"
        }
      ],
      "name": "tokenURI",
      "outputs": [
        {
          "internalType": "string",
          "name": "",
          "type": "string"
        }
      ],
      "stateMutability": "view",
      "type": "function"
    },
    {
      "inputs": [],
      "name": "getCurrentCost",
      "outputs": [
        {
          "internalType": "uint256",
          "name": "",
          "type": "uint256"
        }
      ],
      "stateMutability": "view",
      "type": "function"
    },
    {
      "inputs": [
        {
          "internalType": "uint256",
          "name": "_limit",
          "type": "uint256"
        }
      ],
      "name": "setNftPerAddressLimit",
      "outputs": [],
      "stateMutability": "nonpayable",
      "type": "function"
    },
    {
      "inputs": [
        {
          "internalType": "uint256",
          "name": "_newCost",
          "type": "uint256"
        }
      ],
      "name": "setCost",
      "outputs": [],
      "stateMutability": "nonpayable",
      "type": "function"
    },
    {
      "inputs": [
        {
          "internalType": "uint256",
          "name": "_newmaxMintAmount",
          "type": "uint256"
        }
      ],
      "name": "setmaxMintAmount",
      "outputs": [],
      "stateMutability": "nonpayable",
      "type": "function"
    },
    {
      "inputs": [
        {
          "internalType": "string",
          "name": "_newBaseURI",
          "type": "string"
        }
      ],
      "name": "setBaseURI",
      "outputs": [],
      "stateMutability": "nonpayable",
      "type": "function"
    },
    {
      "inputs": [
        {
          "internalType": "string",
          "name": "_newBaseExtension",
          "type": "string"
        }
      ],
      "name": "setBaseExtension",
      "outputs": [],
      "stateMutability": "nonpayable",
      "type": "function"
    },
    {
      "inputs": [
        {
          "internalType": "string",
          "name": "_notRevealedURI",
          "type": "string"
        }
      ],
      "name": "setNotRevealedURI",
      "outputs": [],
      "stateMutability": "nonpayable",
      "type": "function"
    },
    {
      "inputs": [
        {
          "internalType": "bool",
          "name": "_state",
          "type": "bool"
        }
      ],
      "name": "pause",
      "outputs": [],
      "stateMutability": "nonpayable",
      "type": "function"
    },
    {
      "inputs": [
        {
          "internalType": "bool",
          "name": "_state",
          "type": "bool"
        }
      ],
      "name": "setOnlyWhitelisted",
      "outputs": [],
      "stateMutability": "nonpayable",
      "type": "function"
    },
    {
      "inputs": [
        {
          "internalType": "address[]",
          "name": "_users",
          "type": "address[]"
        }
      ],
      "name": "whitelistUsers",
      "outputs": [],
      "stateMutability": "nonpayable",
      "type": "function"
    },
    {
      "inputs": [],
      "name": "withdraw",
      "outputs": [],
      "stateMutability": "payable",
      "type": "function"
    }
  ],
  "bytecode": "0x60806040526040518060400160405280600581526020017f2e6a736f6e000000000000000000000000000000000000000000000000000000815250600c908051906020019062000051929190620003c1565b5066038d7ea4c68000600e55660305120c0f2000600f556103e8601055600a60115560036012556000601360006101000a81548160ff0219169083151502179055506001601360016101000a81548160ff0219169083151502179055506361c65eff6014556361ce47ff601555348015620000cb57600080fd5b50604051620057ab380380620057ab8339818101604052810190620000f191906200060e565b838381600090805190602001906200010b929190620003c1565b50806001908051906020019062000124929190620003c1565b505050620001476200013b6200017360201b60201c565b6200017b60201b60201c565b62000158826200024160201b60201c565b6200016981620002ec60201b60201c565b50505050620007e4565b600033905090565b6000600a60009054906101000a900473ffffffffffffffffffffffffffffffffffffffff16905081600a60006101000a81548173ffffffffffffffffffffffffffffffffffffffff021916908373ffffffffffffffffffffffffffffffffffffffff1602179055508173ffffffffffffffffffffffffffffffffffffffff168173ffffffffffffffffffffffffffffffffffffffff167f8be0079c531659141344cd1fd0a4f28419497f9722a3daafe3b4186f6b6457e060405160405180910390a35050565b620002516200017360201b60201c565b73ffffffffffffffffffffffffffffffffffffffff16620002776200039760201b60201c565b73ffffffffffffffffffffffffffffffffffffffff1614620002d0576040517f08c379a0000000000000000000000000000000000000000000000000000000008152600401620002c7906200075d565b60405180910390fd5b80600b9080519060200190620002e8929190620003c1565b5050565b620002fc6200017360201b60201c565b73ffffffffffffffffffffffffffffffffffffffff16620003226200039760201b60201c565b73ffffffffffffffffffffffffffffffffffffffff16146200037b576040517f08c379a000000000000000000000000000000000000000000000000000000000815260040162000372906200075d565b60405180910390fd5b80600d908051906020019062000393929190620003c1565b5050565b6000600a60009054906101000a900473ffffffffffffffffffffffffffffffffffffffff16905090565b828054620003cf90620007ae565b90600052602060002090601f016020900481019282620003f357600085556200043f565b82601f106200040e57805160ff19168380011785556200043f565b828001600101855582156200043f579182015b828111156200043e57825182559160200191906001019062000421565b5b5090506200044e919062000452565b5090565b5b808211156200046d57600081600090555060010162000453565b5090565b6000604051905090565b600080fd5b600080fd5b600080fd5b600080fd5b6000601f19601f8301169050919050565b7f4e487b7100000000000000000000000000000000000000000000000000000000600052604160045260246000fd5b620004da826200048f565b810181811067ffffffffffffffff82111715620004fc57620004fb620004a0565b5b80604052505050565b60006200051162000471565b90506200051f8282620004cf565b919050565b600067ffffffffffffffff821115620005425762000541620004a0565b5b6200054d826200048f565b9050602081019050919050565b60005b838110156200057a5780820151818401526020810190506200055d565b838111156200058a576000848401525b50505050565b6000620005a7620005a18462000524565b62000505565b905082815260208101848484011115620005c657620005c56200048a565b5b620005d38482856200055a565b509392505050565b600082601f830112620005f357620005f262000485565b5b81516200060584826020860162000590565b91505092915050565b600080600080608085870312156200062b576200062a6200047b565b5b600085015167ffffffffffffffff8111156200064c576200064b62000480565b5b6200065a87828801620005db565b945050602085015167ffffffffffffffff8111156200067e576200067d62000480565b5b6200068c87828801620005db565b935050604085015167ffffffffffffffff811115620006b057620006af62000480565b5b620006be87828801620005db565b925050606085015167ffffffffffffffff811115620006e257620006e162000480565b5b620006f087828801620005db565b91505092959194509250565b600082825260208201905092915050565b7f4f776e61626c653a2063616c6c6572206973206e6f7420746865206f776e6572600082015250565b600062000745602083620006fc565b915062000752826200070d565b602082019050919050565b60006020820190508181036000830152620007788162000736565b9050919050565b7f4e487b7100000000000000000000000000000000000000000000000000000000600052602260045260246000fd5b60006002820490506001821680620007c757607f821691505b60208210811415620007de57620007dd6200077f565b5b50919050565b614fb780620007f46000396000f3fe6080604052600436106102885760003560e01c806370a082311161015a578063ba7d2c76116100c1578063d5abeb011161007a578063d5abeb01146109dc578063da3ef23f14610a07578063e985e9c514610a30578063edec5f2714610a6d578063f2c4ce1e14610a96578063f2fde38b14610abf57610288565b8063ba7d2c76146108ca578063bba64ab4146108f5578063c10b935814610920578063c66828621461094b578063c87b56dd14610976578063d0eb26b0146109b357610288565b80639c70b512116101135780639c70b512146107c9578063a0712d68146107f4578063a22cb46514610810578063ab0bcc4114610839578063b88d4fde14610864578063ba4e5c491461088d57610288565b806370a08231146106cb578063715018a6146107085780637f00c7a61461071f578063831e60de146107485780638da5cb5b1461077357806395d89b411461079e57610288565b80632f745c59116101fe57806344a0d68a116101b757806344a0d68a146105a95780634f6ccce7146105d257806355f804b31461060f5780635c975abb146106385780636352211e146106635780636c0360eb146106a057610288565b80632f745c59146104965780633af32abf146104d35780633c952764146105105780633ccfd60b1461053957806342842e0e14610543578063438b63001461056c57610288565b8063095ea7b311610250578063095ea7b31461038657806313faede6146103af57806318160ddd146103da57806318cae26914610405578063239c70ae1461044257806323b872dd1461046d57610288565b806301ffc9a71461028d57806302329a29146102ca57806306fdde03146102f3578063081812fc1461031e578063081c8c441461035b575b600080fd5b34801561029957600080fd5b506102b460048036038101906102af9190613656565b610ae8565b6040516102c1919061369e565b60405180910390f35b3480156102d657600080fd5b506102f160048036038101906102ec91906136e5565b610b62565b005b3480156102ff57600080fd5b50610308610bfb565b60405161031591906137ab565b60405180910390f35b34801561032a57600080fd5b5061034560048036038101906103409190613803565b610c8d565b6040516103529190613871565b60405180910390f35b34801561036757600080fd5b50610370610d12565b60405161037d91906137ab565b60405180910390f35b34801561039257600080fd5b506103ad60048036038101906103a891906138b8565b610da0565b005b3480156103bb57600080fd5b506103c4610eb8565b6040516103d19190613907565b60405180910390f35b3480156103e657600080fd5b506103ef610ebe565b6040516103fc9190613907565b60405180910390f35b34801561041157600080fd5b5061042c60048036038101906104279190613922565b610ecb565b6040516104399190613907565b60405180910390f35b34801561044e57600080fd5b50610457610ee3565b6040516104649190613907565b60405180910390f35b34801561047957600080fd5b50610494600480360381019061048f919061394f565b610ee9565b005b3480156104a257600080fd5b506104bd60048036038101906104b891906138b8565b610f49565b6040516104ca9190613907565b60405180910390f35b3480156104df57600080fd5b506104fa60048036038101906104f59190613922565b610fee565b604051610507919061369e565b60405180910390f35b34801561051c57600080fd5b50610537600480360381019061053291906136e5565b61109d565b005b610541611136565b005b34801561054f57600080fd5b5061056a6004803603810190610565919061394f565b611232565b005b34801561057857600080fd5b50610593600480360381019061058e9190613922565b611252565b6040516105a09190613a60565b60405180910390f35b3480156105b557600080fd5b506105d060048036038101906105cb9190613803565b611300565b005b3480156105de57600080fd5b506105f960048036038101906105f49190613803565b611386565b6040516106069190613907565b60405180910390f35b34801561061b57600080fd5b5061063660048036038101906106319190613bb7565b6113f7565b005b34801561064457600080fd5b5061064d61148d565b60405161065a919061369e565b60405180910390f35b34801561066f57600080fd5b5061068a60048036038101906106859190613803565b6114a0565b6040516106979190613871565b60405180910390f35b3480156106ac57600080fd5b506106b5611552565b6040516106c291906137ab565b60405180910390f35b3480156106d757600080fd5b506106f260048036038101906106ed9190613922565b6115e0565b6040516106ff9190613907565b60405180910390f35b34801561071457600080fd5b5061071d611698565b005b34801561072b57600080fd5b5061074660048036038101906107419190613803565b611720565b005b34801561075457600080fd5b5061075d6117a6565b60405161076a9190613907565b60405180910390f35b34801561077f57600080fd5b506107886117c4565b6040516107959190613871565b60405180910390f35b3480156107aa57600080fd5b506107b36117ee565b6040516107c091906137ab565b60405180910390f35b3480156107d557600080fd5b506107de611880565b6040516107eb919061369e565b60405180910390f35b61080e60048036038101906108099190613803565b611893565b005b34801561081c57600080fd5b5061083760048036038101906108329190613c00565b611bc9565b005b34801561084557600080fd5b5061084e611bdf565b60405161085b9190613907565b60405180910390f35b34801561087057600080fd5b5061088b60048036038101906108869190613ce1565b611be5565b005b34801561089957600080fd5b506108b460048036038101906108af9190613803565b611c47565b6040516108c19190613871565b60405180910390f35b3480156108d657600080fd5b506108df611c86565b6040516108ec9190613907565b60405180910390f35b34801561090157600080fd5b5061090a611c8c565b6040516109179190613907565b60405180910390f35b34801561092c57600080fd5b50610935611c92565b6040516109429190613907565b60405180910390f35b34801561095757600080fd5b50610960611c98565b60405161096d91906137ab565b60405180910390f35b34801561098257600080fd5b5061099d60048036038101906109989190613803565b611d26565b6040516109aa91906137ab565b60405180910390f35b3480156109bf57600080fd5b506109da60048036038101906109d59190613803565b611e6c565b005b3480156109e857600080fd5b506109f1611ef2565b6040516109fe9190613907565b60405180910390f35b348015610a1357600080fd5b50610a2e6004803603810190610a299190613bb7565b611ef8565b005b348015610a3c57600080fd5b50610a576004803603810190610a529190613d64565b611f8e565b604051610a64919061369e565b60405180910390f35b348015610a7957600080fd5b50610a946004803603810190610a8f9190613e04565b612022565b005b348015610aa257600080fd5b50610abd6004803603810190610ab89190613bb7565b6120c2565b005b348015610acb57600080fd5b50610ae66004803603810190610ae19190613922565b612158565b005b60007f780e9d63000000000000000000000000000000000000000000000000000000007bffffffffffffffffffffffffffffffffffffffffffffffffffffffff1916827bffffffffffffffffffffffffffffffffffffffffffffffffffffffff19161480610b5b5750610b5a82612250565b5b9050919050565b610b6a612332565b73ffffffffffffffffffffffffffffffffffffffff16610b886117c4565b73ffffffffffffffffffffffffffffffffffffffff1614610bde576040517f08c379a0000000000000000000000000000000000000000000000000000000008152600401610bd590613e9d565b60405180910390fd5b80601360006101000a81548160ff02191690831515021790555050565b606060008054610c0a90613eec565b80601f0160208091040260200160405190810160405280929190818152602001828054610c3690613eec565b8015610c835780601f10610c5857610100808354040283529160200191610c83565b820191906000526020600020905b815481529060010190602001808311610c6657829003601f168201915b5050505050905090565b6000610c988261233a565b610cd7576040517f08c379a0000000000000000000000000000000000000000000000000000000008152600401610cce90613f90565b60405180910390fd5b6004600083815260200190815260200160002060009054906101000a900473ffffffffffffffffffffffffffffffffffffffff169050919050565b600d8054610d1f90613eec565b80601f0160208091040260200160405190810160405280929190818152602001828054610d4b90613eec565b8015610d985780601f10610d6d57610100808354040283529160200191610d98565b820191906000526020600020905b815481529060010190602001808311610d7b57829003601f168201915b505050505081565b6000610dab826114a0565b90508073ffffffffffffffffffffffffffffffffffffffff168373ffffffffffffffffffffffffffffffffffffffff161415610e1c576040517f08c379a0000000000000000000000000000000000000000000000000000000008152600401610e1390614022565b60405180910390fd5b8073ffffffffffffffffffffffffffffffffffffffff16610e3b612332565b73ffffffffffffffffffffffffffffffffffffffff161480610e6a5750610e6981610e64612332565b611f8e565b5b610ea9576040517f08c379a0000000000000000000000000000000000000000000000000000000008152600401610ea0906140b4565b60405180910390fd5b610eb383836123a6565b505050565b600e5481565b6000600880549050905090565b60176020528060005260406000206000915090505481565b60115481565b610efa610ef4612332565b8261245f565b610f39576040517f08c379a0000000000000000000000000000000000000000000000000000000008152600401610f3090614146565b60405180910390fd5b610f4483838361253d565b505050565b6000610f54836115e0565b8210610f95576040517f08c379a0000000000000000000000000000000000000000000000000000000008152600401610f8c906141d8565b60405180910390fd5b600660008473ffffffffffffffffffffffffffffffffffffffff1673ffffffffffffffffffffffffffffffffffffffff168152602001908152602001600020600083815260200190815260200160002054905092915050565b600080600090505b601680549050811015611092578273ffffffffffffffffffffffffffffffffffffffff166016828154811061102e5761102d6141f8565b5b9060005260206000200160009054906101000a900473ffffffffffffffffffffffffffffffffffffffff1673ffffffffffffffffffffffffffffffffffffffff16141561107f576001915050611098565b808061108a90614256565b915050610ff6565b50600090505b919050565b6110a5612332565b73ffffffffffffffffffffffffffffffffffffffff166110c36117c4565b73ffffffffffffffffffffffffffffffffffffffff1614611119576040517f08c379a000000000000000000000000000000000000000000000000000000000815260040161111090613e9d565b60405180910390fd5b80601360016101000a81548160ff02191690831515021790555050565b61113e612332565b73ffffffffffffffffffffffffffffffffffffffff1661115c6117c4565b73ffffffffffffffffffffffffffffffffffffffff16146111b2576040517f08c379a00000000000000000000000000000000000000000000000000000000081526004016111a990613e9d565b60405180910390fd5b60006111bc6117c4565b73ffffffffffffffffffffffffffffffffffffffff16476040516111df906142d0565b60006040518083038185875af1925050503d806000811461121c576040519150601f19603f3d011682016040523d82523d6000602084013e611221565b606091505b505090508061122f57600080fd5b50565b61124d83838360405180602001604052806000815250611be5565b505050565b6060600061125f836115e0565b905060008167ffffffffffffffff81111561127d5761127c613a8c565b5b6040519080825280602002602001820160405280156112ab5781602001602082028036833780820191505090505b50905060005b828110156112f5576112c38582610f49565b8282815181106112d6576112d56141f8565b5b60200260200101818152505080806112ed90614256565b9150506112b1565b508092505050919050565b611308612332565b73ffffffffffffffffffffffffffffffffffffffff166113266117c4565b73ffffffffffffffffffffffffffffffffffffffff161461137c576040517f08c379a000000000000000000000000000000000000000000000000000000000815260040161137390613e9d565b60405180910390fd5b80600e8190555050565b6000611390610ebe565b82106113d1576040517f08c379a00000000000000000000000000000000000000000000000000000000081526004016113c890614357565b60405180910390fd5b600882815481106113e5576113e46141f8565b5b90600052602060002001549050919050565b6113ff612332565b73ffffffffffffffffffffffffffffffffffffffff1661141d6117c4565b73ffffffffffffffffffffffffffffffffffffffff1614611473576040517f08c379a000000000000000000000000000000000000000000000000000000000815260040161146a90613e9d565b60405180910390fd5b80600b9080519060200190611489929190613486565b5050565b601360009054906101000a900460ff1681565b6000806002600084815260200190815260200160002060009054906101000a900473ffffffffffffffffffffffffffffffffffffffff169050600073ffffffffffffffffffffffffffffffffffffffff168173ffffffffffffffffffffffffffffffffffffffff161415611549576040517f08c379a0000000000000000000000000000000000000000000000000000000008152600401611540906143e9565b60405180910390fd5b80915050919050565b600b805461155f90613eec565b80601f016020809104026020016040519081016040528092919081815260200182805461158b90613eec565b80156115d85780601f106115ad576101008083540402835291602001916115d8565b820191906000526020600020905b8154815290600101906020018083116115bb57829003601f168201915b505050505081565b60008073ffffffffffffffffffffffffffffffffffffffff168273ffffffffffffffffffffffffffffffffffffffff161415611651576040517f08c379a00000000000000000000000000000000000000000000000000000000081526004016116489061447b565b60405180910390fd5b600360008373ffffffffffffffffffffffffffffffffffffffff1673ffffffffffffffffffffffffffffffffffffffff168152602001908152602001600020549050919050565b6116a0612332565b73ffffffffffffffffffffffffffffffffffffffff166116be6117c4565b73ffffffffffffffffffffffffffffffffffffffff1614611714576040517f08c379a000000000000000000000000000000000000000000000000000000000815260040161170b90613e9d565b60405180910390fd5b61171e6000612799565b565b611728612332565b73ffffffffffffffffffffffffffffffffffffffff166117466117c4565b73ffffffffffffffffffffffffffffffffffffffff161461179c576040517f08c379a000000000000000000000000000000000000000000000000000000000815260040161179390613e9d565b60405180910390fd5b8060118190555050565b600060145442116117bb57600f5490506117c1565b600e5490505b90565b6000600a60009054906101000a900473ffffffffffffffffffffffffffffffffffffffff16905090565b6060600180546117fd90613eec565b80601f016020809104026020016040519081016040528092919081815260200182805461182990613eec565b80156118765780601f1061184b57610100808354040283529160200191611876565b820191906000526020600020905b81548152906001019060200180831161185957829003601f168201915b5050505050905090565b601360019054906101000a900460ff1681565b601360009054906101000a900460ff16156118e3576040517f08c379a00000000000000000000000000000000000000000000000000000000081526004016118da906144e7565b60405180910390fd5b60006118ed610ebe565b905060008211611932576040517f08c379a000000000000000000000000000000000000000000000000000000000815260040161192990614553565b60405180910390fd5b601154821115611977576040517f08c379a000000000000000000000000000000000000000000000000000000000815260040161196e906145e5565b60405180910390fd5b60105482826119869190614605565b11156119c7576040517f08c379a00000000000000000000000000000000000000000000000000000000081526004016119be906146a7565b60405180910390fd5b6119cf6117c4565b73ffffffffffffffffffffffffffffffffffffffff163373ffffffffffffffffffffffffffffffffffffffff1614611b39576014544211611aa757611a1333610fee565b611a52576040517f08c379a0000000000000000000000000000000000000000000000000000000008152600401611a4990614713565b60405180910390fd5b81600f54611a609190614733565b341015611aa2576040517f08c379a0000000000000000000000000000000000000000000000000000000008152600401611a99906147d9565b60405180910390fd5b611b38565b6015544211611b055781600e54611abe9190614733565b341015611b00576040517f08c379a0000000000000000000000000000000000000000000000000000000008152600401611af7906147d9565b60405180910390fd5b611b37565b6040517f4ac406bb00000000000000000000000000000000000000000000000000000000815260040160405180910390fd5b5b5b6000600190505b828111611bc457601760003373ffffffffffffffffffffffffffffffffffffffff1673ffffffffffffffffffffffffffffffffffffffff1681526020019081526020016000206000815480929190611b9790614256565b9190505550611bb1338284611bac9190614605565b61285f565b8080611bbc90614256565b915050611b40565b505050565b611bdb611bd4612332565b838361287d565b5050565b60145481565b611bf6611bf0612332565b8361245f565b611c35576040517f08c379a0000000000000000000000000000000000000000000000000000000008152600401611c2c90614146565b60405180910390fd5b611c41848484846129ea565b50505050565b60168181548110611c5757600080fd5b906000526020600020016000915054906101000a900473ffffffffffffffffffffffffffffffffffffffff1681565b60125481565b600f5481565b60155481565b600c8054611ca590613eec565b80601f0160208091040260200160405190810160405280929190818152602001828054611cd190613eec565b8015611d1e5780601f10611cf357610100808354040283529160200191611d1e565b820191906000526020600020905b815481529060010190602001808311611d0157829003601f168201915b505050505081565b6060611d318261233a565b611d70576040517f08c379a0000000000000000000000000000000000000000000000000000000008152600401611d679061486b565b60405180910390fd5b6015544211611e0b57600d8054611d8690613eec565b80601f0160208091040260200160405190810160405280929190818152602001828054611db290613eec565b8015611dff5780601f10611dd457610100808354040283529160200191611dff565b820191906000526020600020905b815481529060010190602001808311611de257829003601f168201915b50505050509050611e67565b6000611e15612a46565b90506000815111611e355760405180602001604052806000815250611e63565b80611e3f84612ad8565b600c604051602001611e539392919061495b565b6040516020818303038152906040525b9150505b919050565b611e74612332565b73ffffffffffffffffffffffffffffffffffffffff16611e926117c4565b73ffffffffffffffffffffffffffffffffffffffff1614611ee8576040517f08c379a0000000000000000000000000000000000000000000000000000000008152600401611edf90613e9d565b60405180910390fd5b8060128190555050565b60105481565b611f00612332565b73ffffffffffffffffffffffffffffffffffffffff16611f1e6117c4565b73ffffffffffffffffffffffffffffffffffffffff1614611f74576040517f08c379a0000000000000000000000000000000000000000000000000000000008152600401611f6b90613e9d565b60405180910390fd5b80600c9080519060200190611f8a929190613486565b5050565b6000600560008473ffffffffffffffffffffffffffffffffffffffff1673ffffffffffffffffffffffffffffffffffffffff16815260200190815260200160002060008373ffffffffffffffffffffffffffffffffffffffff1673ffffffffffffffffffffffffffffffffffffffff16815260200190815260200160002060009054906101000a900460ff16905092915050565b61202a612332565b73ffffffffffffffffffffffffffffffffffffffff166120486117c4565b73ffffffffffffffffffffffffffffffffffffffff161461209e576040517f08c379a000000000000000000000000000000000000000000000000000000000815260040161209590613e9d565b60405180910390fd5b601660006120ac919061350c565b8181601691906120bd92919061352d565b505050565b6120ca612332565b73ffffffffffffffffffffffffffffffffffffffff166120e86117c4565b73ffffffffffffffffffffffffffffffffffffffff161461213e576040517f08c379a000000000000000000000000000000000000000000000000000000000815260040161213590613e9d565b60405180910390fd5b80600d9080519060200190612154929190613486565b5050565b612160612332565b73ffffffffffffffffffffffffffffffffffffffff1661217e6117c4565b73ffffffffffffffffffffffffffffffffffffffff16146121d4576040517f08c379a00000000000000000000000000000000000000000000000000000000081526004016121cb90613e9d565b60405180910390fd5b600073ffffffffffffffffffffffffffffffffffffffff168173ffffffffffffffffffffffffffffffffffffffff161415612244576040517f08c379a000000000000000000000000000000000000000000000000000000000815260040161223b906149fe565b60405180910390fd5b61224d81612799565b50565b60007f80ac58cd000000000000000000000000000000000000000000000000000000007bffffffffffffffffffffffffffffffffffffffffffffffffffffffff1916827bffffffffffffffffffffffffffffffffffffffffffffffffffffffff1916148061231b57507f5b5e139f000000000000000000000000000000000000000000000000000000007bffffffffffffffffffffffffffffffffffffffffffffffffffffffff1916827bffffffffffffffffffffffffffffffffffffffffffffffffffffffff1916145b8061232b575061232a82612c39565b5b9050919050565b600033905090565b60008073ffffffffffffffffffffffffffffffffffffffff166002600084815260200190815260200160002060009054906101000a900473ffffffffffffffffffffffffffffffffffffffff1673ffffffffffffffffffffffffffffffffffffffff1614159050919050565b816004600083815260200190815260200160002060006101000a81548173ffffffffffffffffffffffffffffffffffffffff021916908373ffffffffffffffffffffffffffffffffffffffff160217905550808273ffffffffffffffffffffffffffffffffffffffff16612419836114a0565b73ffffffffffffffffffffffffffffffffffffffff167f8c5be1e5ebec7d5bd14f71427d1e84f3dd0314c0f7b2291e5b200ac8c7c3b92560405160405180910390a45050565b600061246a8261233a565b6124a9576040517f08c379a00000000000000000000000000000000000000000000000000000000081526004016124a090614a90565b60405180910390fd5b60006124b4836114a0565b90508073ffffffffffffffffffffffffffffffffffffffff168473ffffffffffffffffffffffffffffffffffffffff16148061252357508373ffffffffffffffffffffffffffffffffffffffff1661250b84610c8d565b73ffffffffffffffffffffffffffffffffffffffff16145b8061253457506125338185611f8e565b5b91505092915050565b8273ffffffffffffffffffffffffffffffffffffffff1661255d826114a0565b73ffffffffffffffffffffffffffffffffffffffff16146125b3576040517f08c379a00000000000000000000000000000000000000000000000000000000081526004016125aa90614b22565b60405180910390fd5b600073ffffffffffffffffffffffffffffffffffffffff168273ffffffffffffffffffffffffffffffffffffffff161415612623576040517f08c379a000000000000000000000000000000000000000000000000000000000815260040161261a90614bb4565b60405180910390fd5b61262e838383612ca3565b6126396000826123a6565b6001600360008573ffffffffffffffffffffffffffffffffffffffff1673ffffffffffffffffffffffffffffffffffffffff16815260200190815260200160002060008282546126899190614bd4565b925050819055506001600360008473ffffffffffffffffffffffffffffffffffffffff1673ffffffffffffffffffffffffffffffffffffffff16815260200190815260200160002060008282546126e09190614605565b92505081905550816002600083815260200190815260200160002060006101000a81548173ffffffffffffffffffffffffffffffffffffffff021916908373ffffffffffffffffffffffffffffffffffffffff160217905550808273ffffffffffffffffffffffffffffffffffffffff168473ffffffffffffffffffffffffffffffffffffffff167fddf252ad1be2c89b69c2b068fc378daa952ba7f163c4a11628f55a4df523b3ef60405160405180910390a4505050565b6000600a60009054906101000a900473ffffffffffffffffffffffffffffffffffffffff16905081600a60006101000a81548173ffffffffffffffffffffffffffffffffffffffff021916908373ffffffffffffffffffffffffffffffffffffffff1602179055508173ffffffffffffffffffffffffffffffffffffffff168173ffffffffffffffffffffffffffffffffffffffff167f8be0079c531659141344cd1fd0a4f28419497f9722a3daafe3b4186f6b6457e060405160405180910390a35050565b612879828260405180602001604052806000815250612db7565b5050565b8173ffffffffffffffffffffffffffffffffffffffff168373ffffffffffffffffffffffffffffffffffffffff1614156128ec576040517f08c379a00000000000000000000000000000000000000000000000000000000081526004016128e390614c54565b60405180910390fd5b80600560008573ffffffffffffffffffffffffffffffffffffffff1673ffffffffffffffffffffffffffffffffffffffff16815260200190815260200160002060008473ffffffffffffffffffffffffffffffffffffffff1673ffffffffffffffffffffffffffffffffffffffff16815260200190815260200160002060006101000a81548160ff0219169083151502179055508173ffffffffffffffffffffffffffffffffffffffff168373ffffffffffffffffffffffffffffffffffffffff167f17307eab39ab6107e8899845ad3d59bd9653f200f220920489ca2b5937696c31836040516129dd919061369e565b60405180910390a3505050565b6129f584848461253d565b612a0184848484612e12565b612a40576040517f08c379a0000000000000000000000000000000000000000000000000000000008152600401612a3790614ce6565b60405180910390fd5b50505050565b6060600b8054612a5590613eec565b80601f0160208091040260200160405190810160405280929190818152602001828054612a8190613eec565b8015612ace5780601f10612aa357610100808354040283529160200191612ace565b820191906000526020600020905b815481529060010190602001808311612ab157829003601f168201915b5050505050905090565b60606000821415612b20576040518060400160405280600181526020017f30000000000000000000000000000000000000000000000000000000000000008152509050612c34565b600082905060005b60008214612b52578080612b3b90614256565b915050600a82612b4b9190614d35565b9150612b28565b60008167ffffffffffffffff811115612b6e57612b6d613a8c565b5b6040519080825280601f01601f191660200182016040528015612ba05781602001600182028036833780820191505090505b5090505b60008514612c2d57600182612bb99190614bd4565b9150600a85612bc89190614d66565b6030612bd49190614605565b60f81b818381518110612bea57612be96141f8565b5b60200101907effffffffffffffffffffffffffffffffffffffffffffffffffffffffffffff1916908160001a905350600a85612c269190614d35565b9450612ba4565b8093505050505b919050565b60007f01ffc9a7000000000000000000000000000000000000000000000000000000007bffffffffffffffffffffffffffffffffffffffffffffffffffffffff1916827bffffffffffffffffffffffffffffffffffffffffffffffffffffffff1916149050919050565b612cae838383612f9a565b600073ffffffffffffffffffffffffffffffffffffffff168373ffffffffffffffffffffffffffffffffffffffff161415612cf157612cec81612f9f565b612d30565b8173ffffffffffffffffffffffffffffffffffffffff168373ffffffffffffffffffffffffffffffffffffffff1614612d2f57612d2e8382612fe8565b5b5b600073ffffffffffffffffffffffffffffffffffffffff168273ffffffffffffffffffffffffffffffffffffffff161415612d7357612d6e81613155565b612db2565b8273ffffffffffffffffffffffffffffffffffffffff168273ffffffffffffffffffffffffffffffffffffffff1614612db157612db08282613226565b5b5b505050565b612dc183836132a5565b612dce6000848484612e12565b612e0d576040517f08c379a0000000000000000000000000000000000000000000000000000000008152600401612e0490614ce6565b60405180910390fd5b505050565b6000612e338473ffffffffffffffffffffffffffffffffffffffff16613473565b15612f8d578373ffffffffffffffffffffffffffffffffffffffff1663150b7a02612e5c612332565b8786866040518563ffffffff1660e01b8152600401612e7e9493929190614dec565b6020604051808303816000875af1925050508015612eba57506040513d601f19601f82011682018060405250810190612eb79190614e4d565b60015b612f3d573d8060008114612eea576040519150601f19603f3d011682016040523d82523d6000602084013e612eef565b606091505b50600081511415612f35576040517f08c379a0000000000000000000000000000000000000000000000000000000008152600401612f2c90614ce6565b60405180910390fd5b805181602001fd5b63150b7a0260e01b7bffffffffffffffffffffffffffffffffffffffffffffffffffffffff1916817bffffffffffffffffffffffffffffffffffffffffffffffffffffffff191614915050612f92565b600190505b949350505050565b505050565b6008805490506009600083815260200190815260200160002081905550600881908060018154018082558091505060019003906000526020600020016000909190919091505550565b60006001612ff5846115e0565b612fff9190614bd4565b90506000600760008481526020019081526020016000205490508181146130e4576000600660008673ffffffffffffffffffffffffffffffffffffffff1673ffffffffffffffffffffffffffffffffffffffff168152602001908152602001600020600084815260200190815260200160002054905080600660008773ffffffffffffffffffffffffffffffffffffffff1673ffffffffffffffffffffffffffffffffffffffff168152602001908152602001600020600084815260200190815260200160002081905550816007600083815260200190815260200160002081905550505b6007600084815260200190815260200160002060009055600660008573ffffffffffffffffffffffffffffffffffffffff1673ffffffffffffffffffffffffffffffffffffffff16815260200190815260200160002060008381526020019081526020016000206000905550505050565b600060016008805490506131699190614bd4565b9050600060096000848152602001908152602001600020549050600060088381548110613199576131986141f8565b5b9060005260206000200154905080600883815481106131bb576131ba6141f8565b5b90600052602060002001819055508160096000838152602001908152602001600020819055506009600085815260200190815260200160002060009055600880548061320a57613209614e7a565b5b6001900381819060005260206000200160009055905550505050565b6000613231836115e0565b905081600660008573ffffffffffffffffffffffffffffffffffffffff1673ffffffffffffffffffffffffffffffffffffffff168152602001908152602001600020600083815260200190815260200160002081905550806007600084815260200190815260200160002081905550505050565b600073ffffffffffffffffffffffffffffffffffffffff168273ffffffffffffffffffffffffffffffffffffffff161415613315576040517f08c379a000000000000000000000000000000000000000000000000000000000815260040161330c90614ef5565b60405180910390fd5b61331e8161233a565b1561335e576040517f08c379a000000000000000000000000000000000000000000000000000000000815260040161335590614f61565b60405180910390fd5b61336a60008383612ca3565b6001600360008473ffffffffffffffffffffffffffffffffffffffff1673ffffffffffffffffffffffffffffffffffffffff16815260200190815260200160002060008282546133ba9190614605565b92505081905550816002600083815260200190815260200160002060006101000a81548173ffffffffffffffffffffffffffffffffffffffff021916908373ffffffffffffffffffffffffffffffffffffffff160217905550808273ffffffffffffffffffffffffffffffffffffffff16600073ffffffffffffffffffffffffffffffffffffffff167fddf252ad1be2c89b69c2b068fc378daa952ba7f163c4a11628f55a4df523b3ef60405160405180910390a45050565b600080823b905060008111915050919050565b82805461349290613eec565b90600052602060002090601f0160209004810192826134b457600085556134fb565b82601f106134cd57805160ff19168380011785556134fb565b828001600101855582156134fb579182015b828111156134fa5782518255916020019190600101906134df565b5b50905061350891906135cd565b5090565b508054600082559060005260206000209081019061352a91906135cd565b50565b8280548282559060005260206000209081019282156135bc579160200282015b828111156135bb57823573ffffffffffffffffffffffffffffffffffffffff168260006101000a81548173ffffffffffffffffffffffffffffffffffffffff021916908373ffffffffffffffffffffffffffffffffffffffff1602179055509160200191906001019061354d565b5b5090506135c991906135cd565b5090565b5b808211156135e65760008160009055506001016135ce565b5090565b6000604051905090565b600080fd5b600080fd5b60007fffffffff0000000000000000000000000000000000000000000000000000000082169050919050565b613633816135fe565b811461363e57600080fd5b50565b6000813590506136508161362a565b92915050565b60006020828403121561366c5761366b6135f4565b5b600061367a84828501613641565b91505092915050565b60008115159050919050565b61369881613683565b82525050565b60006020820190506136b3600083018461368f565b92915050565b6136c281613683565b81146136cd57600080fd5b50565b6000813590506136df816136b9565b92915050565b6000602082840312156136fb576136fa6135f4565b5b6000613709848285016136d0565b91505092915050565b600081519050919050565b600082825260208201905092915050565b60005b8381101561374c578082015181840152602081019050613731565b8381111561375b576000848401525b50505050565b6000601f19601f8301169050919050565b600061377d82613712565b613787818561371d565b935061379781856020860161372e565b6137a081613761565b840191505092915050565b600060208201905081810360008301526137c58184613772565b905092915050565b6000819050919050565b6137e0816137cd565b81146137eb57600080fd5b50565b6000813590506137fd816137d7565b92915050565b600060208284031215613819576138186135f4565b5b6000613827848285016137ee565b91505092915050565b600073ffffffffffffffffffffffffffffffffffffffff82169050919050565b600061385b82613830565b9050919050565b61386b81613850565b82525050565b60006020820190506138866000830184613862565b92915050565b61389581613850565b81146138a057600080fd5b50565b6000813590506138b28161388c565b92915050565b600080604083850312156138cf576138ce6135f4565b5b60006138dd858286016138a3565b92505060206138ee858286016137ee565b9150509250929050565b613901816137cd565b82525050565b600060208201905061391c60008301846138f8565b92915050565b600060208284031215613938576139376135f4565b5b6000613946848285016138a3565b91505092915050565b600080600060608486031215613968576139676135f4565b5b6000613976868287016138a3565b9350506020613987868287016138a3565b9250506040613998868287016137ee565b9150509250925092565b600081519050919050565b600082825260208201905092915050565b6000819050602082019050919050565b6139d7816137cd565b82525050565b60006139e983836139ce565b60208301905092915050565b6000602082019050919050565b6000613a0d826139a2565b613a1781856139ad565b9350613a22836139be565b8060005b83811015613a53578151613a3a88826139dd565b9750613a45836139f5565b925050600181019050613a26565b5085935050505092915050565b60006020820190508181036000830152613a7a8184613a02565b905092915050565b600080fd5b600080fd5b7f4e487b7100000000000000000000000000000000000000000000000000000000600052604160045260246000fd5b613ac482613761565b810181811067ffffffffffffffff82111715613ae357613ae2613a8c565b5b80604052505050565b6000613af66135ea565b9050613b028282613abb565b919050565b600067ffffffffffffffff821115613b2257613b21613a8c565b5b613b2b82613761565b9050602081019050919050565b82818337600083830152505050565b6000613b5a613b5584613b07565b613aec565b905082815260208101848484011115613b7657613b75613a87565b5b613b81848285613b38565b509392505050565b600082601f830112613b9e57613b9d613a82565b5b8135613bae848260208601613b47565b91505092915050565b600060208284031215613bcd57613bcc6135f4565b5b600082013567ffffffffffffffff811115613beb57613bea6135f9565b5b613bf784828501613b89565b91505092915050565b60008060408385031215613c1757613c166135f4565b5b6000613c25858286016138a3565b9250506020613c36858286016136d0565b9150509250929050565b600067ffffffffffffffff821115613c5b57613c5a613a8c565b5b613c6482613761565b9050602081019050919050565b6000613c84613c7f84613c40565b613aec565b905082815260208101848484011115613ca057613c9f613a87565b5b613cab848285613b38565b509392505050565b600082601f830112613cc857613cc7613a82565b5b8135613cd8848260208601613c71565b91505092915050565b60008060008060808587031215613cfb57613cfa6135f4565b5b6000613d09878288016138a3565b9450506020613d1a878288016138a3565b9350506040613d2b878288016137ee565b925050606085013567ffffffffffffffff811115613d4c57613d4b6135f9565b5b613d5887828801613cb3565b91505092959194509250565b60008060408385031215613d7b57613d7a6135f4565b5b6000613d89858286016138a3565b9250506020613d9a858286016138a3565b9150509250929050565b600080fd5b600080fd5b60008083601f840112613dc457613dc3613a82565b5b8235905067ffffffffffffffff811115613de157613de0613da4565b5b602083019150836020820283011115613dfd57613dfc613da9565b5b9250929050565b60008060208385031215613e1b57613e1a6135f4565b5b600083013567ffffffffffffffff811115613e3957613e386135f9565b5b613e4585828601613dae565b92509250509250929050565b7f4f776e61626c653a2063616c6c6572206973206e6f7420746865206f776e6572600082015250565b6000613e8760208361371d565b9150613e9282613e51565b602082019050919050565b60006020820190508181036000830152613eb681613e7a565b9050919050565b7f4e487b7100000000000000000000000000000000000000000000000000000000600052602260045260246000fd5b60006002820490506001821680613f0457607f821691505b60208210811415613f1857613f17613ebd565b5b50919050565b7f4552433732313a20617070726f76656420717565727920666f72206e6f6e657860008201527f697374656e7420746f6b656e0000000000000000000000000000000000000000602082015250565b6000613f7a602c8361371d565b9150613f8582613f1e565b604082019050919050565b60006020820190508181036000830152613fa981613f6d565b9050919050565b7f4552433732313a20617070726f76616c20746f2063757272656e74206f776e6560008201527f7200000000000000000000000000000000000000000000000000000000000000602082015250565b600061400c60218361371d565b915061401782613fb0565b604082019050919050565b6000602082019050818103600083015261403b81613fff565b9050919050565b7f4552433732313a20617070726f76652063616c6c6572206973206e6f74206f7760008201527f6e6572206e6f7220617070726f76656420666f7220616c6c0000000000000000602082015250565b600061409e60388361371d565b91506140a982614042565b604082019050919050565b600060208201905081810360008301526140cd81614091565b9050919050565b7f4552433732313a207472616e736665722063616c6c6572206973206e6f74206f60008201527f776e6572206e6f7220617070726f766564000000000000000000000000000000602082015250565b600061413060318361371d565b915061413b826140d4565b604082019050919050565b6000602082019050818103600083015261415f81614123565b9050919050565b7f455243373231456e756d657261626c653a206f776e657220696e646578206f7560008201527f74206f6620626f756e6473000000000000000000000000000000000000000000602082015250565b60006141c2602b8361371d565b91506141cd82614166565b604082019050919050565b600060208201905081810360008301526141f1816141b5565b9050919050565b7f4e487b7100000000000000000000000000000000000000000000000000000000600052603260045260246000fd5b7f4e487b7100000000000000000000000000000000000000000000000000000000600052601160045260246000fd5b6000614261826137cd565b91507fffffffffffffffffffffffffffffffffffffffffffffffffffffffffffffffff82141561429457614293614227565b5b600182019050919050565b600081905092915050565b50565b60006142ba60008361429f565b91506142c5826142aa565b600082019050919050565b60006142db826142ad565b9150819050919050565b7f455243373231456e756d657261626c653a20676c6f62616c20696e646578206f60008201527f7574206f6620626f756e64730000000000000000000000000000000000000000602082015250565b6000614341602c8361371d565b915061434c826142e5565b604082019050919050565b6000602082019050818103600083015261437081614334565b9050919050565b7f4552433732313a206f776e657220717565727920666f72206e6f6e657869737460008201527f656e7420746f6b656e0000000000000000000000000000000000000000000000602082015250565b60006143d360298361371d565b91506143de82614377565b604082019050919050565b60006020820190508181036000830152614402816143c6565b9050919050565b7f4552433732313a2062616c616e636520717565727920666f7220746865207a6560008201527f726f206164647265737300000000000000000000000000000000000000000000602082015250565b6000614465602a8361371d565b915061447082614409565b604082019050919050565b6000602082019050818103600083015261449481614458565b9050919050565b7f74686520636f6e74726163742069732070617573656400000000000000000000600082015250565b60006144d160168361371d565b91506144dc8261449b565b602082019050919050565b60006020820190508181036000830152614500816144c4565b9050919050565b7f6e65656420746f206d696e74206174206c656173742031204e46540000000000600082015250565b600061453d601b8361371d565b915061454882614507565b602082019050919050565b6000602082019050818103600083015261456c81614530565b9050919050565b7f6d6178206d696e7420616d6f756e74207065722073657373696f6e206578636560008201527f6564656400000000000000000000000000000000000000000000000000000000602082015250565b60006145cf60248361371d565b91506145da82614573565b604082019050919050565b600060208201905081810360008301526145fe816145c2565b9050919050565b6000614610826137cd565b915061461b836137cd565b9250827fffffffffffffffffffffffffffffffffffffffffffffffffffffffffffffffff038211156146505761464f614227565b5b828201905092915050565b7f6d6178204e4654206c696d697420657863656564656400000000000000000000600082015250565b600061469160168361371d565b915061469c8261465b565b602082019050919050565b600060208201905081810360008301526146c081614684565b9050919050565b7f61646472657373206e6f742077686974656c6973746564000000000000000000600082015250565b60006146fd60178361371d565b9150614708826146c7565b602082019050919050565b6000602082019050818103600083015261472c816146f0565b9050919050565b600061473e826137cd565b9150614749836137cd565b9250817fffffffffffffffffffffffffffffffffffffffffffffffffffffffffffffffff048311821515161561478257614781614227565b5b828202905092915050565b7f696e73756666696369656e742066756e64730000000000000000000000000000600082015250565b60006147c360128361371d565b91506147ce8261478d565b602082019050919050565b600060208201905081810360008301526147f2816147b6565b9050919050565b7f4552433732314d657461646174613a2055524920717565727920666f72206e6f60008201527f6e6578697374656e7420746f6b656e0000000000000000000000000000000000602082015250565b6000614855602f8361371d565b9150614860826147f9565b604082019050919050565b6000602082019050818103600083015261488481614848565b9050919050565b600081905092915050565b60006148a182613712565b6148ab818561488b565b93506148bb81856020860161372e565b80840191505092915050565b60008190508160005260206000209050919050565b600081546148e981613eec565b6148f3818661488b565b9450600182166000811461490e576001811461491f57614952565b60ff19831686528186019350614952565b614928856148c7565b60005b8381101561494a5781548189015260018201915060208101905061492b565b838801955050505b50505092915050565b60006149678286614896565b91506149738285614896565b915061497f82846148dc565b9150819050949350505050565b7f4f776e61626c653a206e6577206f776e657220697320746865207a65726f206160008201527f6464726573730000000000000000000000000000000000000000000000000000602082015250565b60006149e860268361371d565b91506149f38261498c565b604082019050919050565b60006020820190508181036000830152614a17816149db565b9050919050565b7f4552433732313a206f70657261746f7220717565727920666f72206e6f6e657860008201527f697374656e7420746f6b656e0000000000000000000000000000000000000000602082015250565b6000614a7a602c8361371d565b9150614a8582614a1e565b604082019050919050565b60006020820190508181036000830152614aa981614a6d565b9050919050565b7f4552433732313a207472616e73666572206f6620746f6b656e2074686174206960008201527f73206e6f74206f776e0000000000000000000000000000000000000000000000602082015250565b6000614b0c60298361371d565b9150614b1782614ab0565b604082019050919050565b60006020820190508181036000830152614b3b81614aff565b9050919050565b7f4552433732313a207472616e7366657220746f20746865207a65726f2061646460008201527f7265737300000000000000000000000000000000000000000000000000000000602082015250565b6000614b9e60248361371d565b9150614ba982614b42565b604082019050919050565b60006020820190508181036000830152614bcd81614b91565b9050919050565b6000614bdf826137cd565b9150614bea836137cd565b925082821015614bfd57614bfc614227565b5b828203905092915050565b7f4552433732313a20617070726f766520746f2063616c6c657200000000000000600082015250565b6000614c3e60198361371d565b9150614c4982614c08565b602082019050919050565b60006020820190508181036000830152614c6d81614c31565b9050919050565b7f4552433732313a207472616e7366657220746f206e6f6e20455243373231526560008201527f63656976657220696d706c656d656e7465720000000000000000000000000000602082015250565b6000614cd060328361371d565b9150614cdb82614c74565b604082019050919050565b60006020820190508181036000830152614cff81614cc3565b9050919050565b7f4e487b7100000000000000000000000000000000000000000000000000000000600052601260045260246000fd5b6000614d40826137cd565b9150614d4b836137cd565b925082614d5b57614d5a614d06565b5b828204905092915050565b6000614d71826137cd565b9150614d7c836137cd565b925082614d8c57614d8b614d06565b5b828206905092915050565b600081519050919050565b600082825260208201905092915050565b6000614dbe82614d97565b614dc88185614da2565b9350614dd881856020860161372e565b614de181613761565b840191505092915050565b6000608082019050614e016000830187613862565b614e0e6020830186613862565b614e1b60408301856138f8565b8181036060830152614e2d8184614db3565b905095945050505050565b600081519050614e478161362a565b92915050565b600060208284031215614e6357614e626135f4565b5b6000614e7184828501614e38565b91505092915050565b7f4e487b7100000000000000000000000000000000000000000000000000000000600052603160045260246000fd5b7f4552433732313a206d696e7420746f20746865207a65726f2061646472657373600082015250565b6000614edf60208361371d565b9150614eea82614ea9565b602082019050919050565b60006020820190508181036000830152614f0e81614ed2565b9050919050565b7f4552433732313a20746f6b656e20616c7265616479206d696e74656400000000600082015250565b6000614f4b601c8361371d565b9150614f5682614f15565b602082019050919050565b60006020820190508181036000830152614f7a81614f3e565b905091905056fea26469706673582212207cf567c3a7e466ffa329361572b575ad670a34c0e1518153508bfcac5254280464736f6c634300080a0033",
  "immutableReferences": {},
  "source": "// SPDX-License-Identifier: GPL-3.0\n\n// Amended by HashLips\n/**\n    !Disclaimer!\n    These contracts have been used to create tutorials,\n    and was created for the purpose to teach people\n    how to create smart contracts on the blockchain.\n    please review this code on your own before using any of\n    the following code for production.\n    HashLips will not be liable in any way if for the use \n    of the code. That being said, the code has been tested \n    to the best of the developers' knowledge to work as intended.\n*/\n\npragma solidity >=0.7.0 <0.9.0;\n\nimport \"@openzeppelin/contracts/token/ERC721/extensions/ERC721Enumerable.sol\";\nimport \"@openzeppelin/contracts/access/Ownable.sol\";\n\ncontract NFT is ERC721Enumerable, Ownable {\n  using Strings for uint256;\n\n  string public baseURI;\n  string public baseExtension = \".json\";\n  string public notRevealedUri;\n  uint256 public cost = 1000000 gwei;\n  uint256 public discountCost = 850000 gwei;\n  uint256 public maxSupply = 1000;\n  uint256 public maxMintAmount = 10;\n  uint256 public nftPerAddressLimit = 3;\n  bool public paused = false;\n  // bool public revealed = false;\n  bool public onlyWhitelisted = true;\n  uint public saleStart = 1640390399; //Date and time (GMT): Friday, December 24, 2021 11:59:59 PM\n  uint public saleEnd = 1640908799; //Date and time (GMT): Thursday, December 30, 2021 11:59:59 PM\n  // Our Client\n  address[] public whitelistedAddresses;\n  mapping(address => uint256) public addressMintedBalance;\n\n  // Error that describes failures.\n\n  /// The sale has already been completed.\n  error SalesCompleted();\n\n  constructor(\n    string memory _name,\n    string memory _symbol,\n    string memory _initBaseURI,\n    string memory _initNotRevealedUri\n  ) ERC721(_name, _symbol) {\n    setBaseURI(_initBaseURI);\n    setNotRevealedURI(_initNotRevealedUri);\n  }\n\n  // internal\n  function _baseURI() internal view virtual override returns (string memory) {\n    return baseURI;\n  }\n\n  // public\n  function mint(uint256 _mintAmount) public payable {\n    require(!paused, \"the contract is paused\");\n    uint256 supply = totalSupply();\n    require(_mintAmount > 0, \"need to mint at least 1 NFT\");\n    require(_mintAmount <= maxMintAmount, \"max mint amount per session exceeded\");\n    require(supply + _mintAmount <= maxSupply, \"max NFT limit exceeded\");\n\n    if (msg.sender != owner()) {\n      // Correspond to presale\n      if (block.timestamp <= saleStart) {\n        // If address is whitelisted (is a client)\n        require (isWhitelisted(msg.sender), \"address not whitelisted\");\n        require (msg.value >= discountCost * _mintAmount, \"insufficient funds\");\n      // Correspond to official sale\n      } else if (block.timestamp <= saleEnd) {\n        require (msg.value >= cost * _mintAmount, \"insufficient funds\");\n      } else {\n        revert SalesCompleted();\n      }\n    }\n    \n    for (uint256 i = 1; i <= _mintAmount; i++) {\n        addressMintedBalance[msg.sender]++;\n      _safeMint(msg.sender, supply + i);\n    }\n  }\n  \n  function isWhitelisted(address _user) public view returns (bool) {\n    for (uint i = 0; i < whitelistedAddresses.length; i++) {\n      if (whitelistedAddresses[i] == _user) {\n          return true;\n      }\n    }\n    return false;\n  }\n\n  function walletOfOwner(address _owner)\n    public\n    view\n    returns (uint256[] memory)\n  {\n    uint256 ownerTokenCount = balanceOf(_owner);\n    uint256[] memory tokenIds = new uint256[](ownerTokenCount);\n    for (uint256 i; i < ownerTokenCount; i++) {\n      tokenIds[i] = tokenOfOwnerByIndex(_owner, i);\n    }\n    return tokenIds;\n  }\n\n  function tokenURI(uint256 tokenId)\n    public\n    view\n    virtual\n    override\n    returns (string memory)\n  {\n    require(\n      _exists(tokenId),\n      \"ERC721Metadata: URI query for nonexistent token\"\n    );\n    \n    if(block.timestamp <= saleEnd) {\n        return notRevealedUri;\n    }\n\n    string memory currentBaseURI = _baseURI();\n    return bytes(currentBaseURI).length > 0\n        ? string(abi.encodePacked(currentBaseURI, tokenId.toString(), baseExtension))\n        : \"\";\n  }\n\n  //only owner\n  // function reveal() public onlyOwner {\n  //     revealed = true;\n  // }\n\n  function getCurrentCost() public view returns (uint) {\n    if (block.timestamp <= saleStart) {\n      return discountCost;\n    } else {\n      return cost;\n    }\n  }\n  \n  function setNftPerAddressLimit(uint256 _limit) public onlyOwner {\n    nftPerAddressLimit = _limit;\n  }\n  \n  function setCost(uint256 _newCost) public onlyOwner {\n    cost = _newCost;\n  }\n\n  function setmaxMintAmount(uint256 _newmaxMintAmount) public onlyOwner {\n    maxMintAmount = _newmaxMintAmount;\n  }\n\n  function setBaseURI(string memory _newBaseURI) public onlyOwner {\n    baseURI = _newBaseURI;\n  }\n\n  function setBaseExtension(string memory _newBaseExtension) public onlyOwner {\n    baseExtension = _newBaseExtension;\n  }\n  \n  function setNotRevealedURI(string memory _notRevealedURI) public onlyOwner {\n    notRevealedUri = _notRevealedURI;\n  }\n\n  function pause(bool _state) public onlyOwner {\n    paused = _state;\n  }\n  \n  function setOnlyWhitelisted(bool _state) public onlyOwner {\n    onlyWhitelisted = _state;\n  }\n  \n  function whitelistUsers(address[] calldata _users) public onlyOwner {\n    delete whitelistedAddresses;\n    whitelistedAddresses = _users;\n  }\n \n  function withdraw() public payable onlyOwner {\n    (bool os, ) = payable(owner()).call{value: address(this).balance}(\"\");\n    require(os);\n  }\n}\n",
  "sourcePath": "/Users/lucastrudel/Desktop/Rocket_Elevators_Blockchain/contracts/RocketElevatorNFT.sol",
  "compiler": {
    "name": "solc",
    "version": "0.8.10+commit.fc410830.Emscripten.clang"
  },
  "schemaVersion": "3.4.4",
  "updatedAt": "2021-12-22T16:38:07.440Z",
  "devdoc": {
    "kind": "dev",
    "methods": {
      "approve(address,uint256)": {
        "details": "See {IERC721-approve}."
      },
      "balanceOf(address)": {
        "details": "See {IERC721-balanceOf}."
      },
      "getApproved(uint256)": {
        "details": "See {IERC721-getApproved}."
      },
      "isApprovedForAll(address,address)": {
        "details": "See {IERC721-isApprovedForAll}."
      },
      "name()": {
        "details": "See {IERC721Metadata-name}."
      },
      "owner()": {
        "details": "Returns the address of the current owner."
      },
      "ownerOf(uint256)": {
        "details": "See {IERC721-ownerOf}."
      },
      "renounceOwnership()": {
        "details": "Leaves the contract without owner. It will not be possible to call `onlyOwner` functions anymore. Can only be called by the current owner. NOTE: Renouncing ownership will leave the contract without an owner, thereby removing any functionality that is only available to the owner."
      },
      "safeTransferFrom(address,address,uint256)": {
        "details": "See {IERC721-safeTransferFrom}."
      },
      "safeTransferFrom(address,address,uint256,bytes)": {
        "details": "See {IERC721-safeTransferFrom}."
      },
      "setApprovalForAll(address,bool)": {
        "details": "See {IERC721-setApprovalForAll}."
      },
      "supportsInterface(bytes4)": {
        "details": "See {IERC165-supportsInterface}."
      },
      "symbol()": {
        "details": "See {IERC721Metadata-symbol}."
      },
      "tokenByIndex(uint256)": {
        "details": "See {IERC721Enumerable-tokenByIndex}."
      },
      "tokenOfOwnerByIndex(address,uint256)": {
        "details": "See {IERC721Enumerable-tokenOfOwnerByIndex}."
      },
      "tokenURI(uint256)": {
        "details": "See {IERC721Metadata-tokenURI}."
      },
      "totalSupply()": {
        "details": "See {IERC721Enumerable-totalSupply}."
      },
      "transferFrom(address,address,uint256)": {
        "details": "See {IERC721-transferFrom}."
      },
      "transferOwnership(address)": {
        "details": "Transfers ownership of the contract to a new account (`newOwner`). Can only be called by the current owner."
      }
    },
    "version": 1
  },
  "userdoc": {
    "errors": {
      "SalesCompleted()": [
        {
          "notice": "The sale has already been completed."
        }
      ]
    },
    "kind": "user",
    "methods": {},
    "version": 1
  }
}